{
  "_format": "hh-sol-artifact-1",
  "contractName": "TokenSale",
  "sourceName": "contracts/TokenSale.sol",
  "abi": [
    {
      "inputs": [
        {
          "internalType": "uint256",
          "name": "ratio_",
          "type": "uint256"
        },
        {
          "internalType": "address",
          "name": "paymentToken_",
          "type": "address"
        },
        {
          "internalType": "address",
          "name": "nftContract_",
          "type": "address"
        }
      ],
      "stateMutability": "nonpayable",
      "type": "constructor"
    },
    {
      "inputs": [],
      "name": "buyTokens",
      "outputs": [],
      "stateMutability": "payable",
      "type": "function"
    },
    {
      "inputs": [],
      "name": "nftContract",
      "outputs": [
        {
          "internalType": "contract MyERC721",
          "name": "",
          "type": "address"
        }
      ],
      "stateMutability": "view",
      "type": "function"
    },
    {
      "inputs": [],
      "name": "paymentToken",
      "outputs": [
        {
          "internalType": "contract MyERC20Token",
          "name": "",
          "type": "address"
        }
      ],
      "stateMutability": "view",
      "type": "function"
    },
    {
      "inputs": [],
      "name": "ratio",
      "outputs": [
        {
          "internalType": "uint256",
          "name": "",
          "type": "uint256"
        }
      ],
      "stateMutability": "view",
      "type": "function"
    }
  ],
  "bytecode": "0x608060405234801561001057600080fd5b5060405161057d38038061057d8339818101604052810190610032919061015c565b8260008190555081600160006101000a81548173ffffffffffffffffffffffffffffffffffffffff021916908373ffffffffffffffffffffffffffffffffffffffff16021790555080600260006101000a81548173ffffffffffffffffffffffffffffffffffffffff021916908373ffffffffffffffffffffffffffffffffffffffff1602179055505050506101af565b600080fd5b6000819050919050565b6100db816100c8565b81146100e657600080fd5b50565b6000815190506100f8816100d2565b92915050565b600073ffffffffffffffffffffffffffffffffffffffff82169050919050565b6000610129826100fe565b9050919050565b6101398161011e565b811461014457600080fd5b50565b60008151905061015681610130565b92915050565b600080600060608486031215610175576101746100c3565b5b6000610183868287016100e9565b935050602061019486828701610147565b92505060406101a586828701610147565b9150509250925092565b6103bf806101be6000396000f3fe60806040526004361061003f5760003560e01c80633013ce291461004457806371ca337d1461006f578063d0febe4c1461009a578063d56d229d146100a4575b600080fd5b34801561005057600080fd5b506100596100cf565b6040516100669190610243565b60405180910390f35b34801561007b57600080fd5b506100846100f5565b6040516100919190610277565b60405180910390f35b6100a26100fb565b005b3480156100b057600080fd5b506100b961019e565b6040516100c691906102b3565b60405180910390f35b600160009054906101000a900473ffffffffffffffffffffffffffffffffffffffff1681565b60005481565b600080543461010a91906102fd565b9050600160009054906101000a900473ffffffffffffffffffffffffffffffffffffffff1673ffffffffffffffffffffffffffffffffffffffff166340c10f1933836040518363ffffffff1660e01b8152600401610169929190610360565b600060405180830381600087803b15801561018357600080fd5b505af1158015610197573d6000803e3d6000fd5b5050505050565b600260009054906101000a900473ffffffffffffffffffffffffffffffffffffffff1681565b600073ffffffffffffffffffffffffffffffffffffffff82169050919050565b6000819050919050565b60006102096102046101ff846101c4565b6101e4565b6101c4565b9050919050565b600061021b826101ee565b9050919050565b600061022d82610210565b9050919050565b61023d81610222565b82525050565b60006020820190506102586000830184610234565b92915050565b6000819050919050565b6102718161025e565b82525050565b600060208201905061028c6000830184610268565b92915050565b600061029d82610210565b9050919050565b6102ad81610292565b82525050565b60006020820190506102c860008301846102a4565b92915050565b7f4e487b7100000000000000000000000000000000000000000000000000000000600052601160045260246000fd5b60006103088261025e565b91506103138361025e565b92508282026103218161025e565b91508282048414831517610338576103376102ce565b5b5092915050565b600061034a826101c4565b9050919050565b61035a8161033f565b82525050565b60006040820190506103756000830185610351565b6103826020830184610268565b939250505056fea264697066735822122002a6e28fc2dac832034d803abd429c8e2cbefc7e723ad0e2b278d69bdc6dd26664736f6c63430008130033",
  "linkReferences": {},
  "deployedLinkReferences": {}
}